:020000040800F2
:100000000040012001240008412300084D2300087E
:1000100053230008592300085F2300080000000054
:100020000000000000000000000000006523000840
:1000300071230008000000007D23000889230008C8
:1000400049240008492400084924000849240008DC
:1000500049240008492400084924000849240008CC
:1000600049240008492400084924000849240008BC
:1000700049240008492400084924000849240008AC
:10008000492400084924000849240008492400089C
:10009000492400084924000849240008492400088C
:1000A000492400084924000849240008492400087C
:1000B000492400084924000849240008492400086C
:1000C000492400084924000849240008492400085C
:1000D00049240008492400081504000849240008A0
:1000E000492400084924000849240008492400083C
:1000F00049240008000000004924000849240008A1
:10010000492400084924000849240008492400081B
:100110004924000849240008492400080000000080
:10012000492400080000000000000000000000005A
:0C01300000000000000000005FF808F173
:10013C0010B5054C237833B9044B13B10448AFF315
:10014C0000800123237010BD04000020000000007B
:10015C009424000808B5034B1BB103490348AFF3C3
:10016C00008008BD00000000080000209424000856
:10017C00B0B588B000AF0023FB61614B5B6A604A8D
:10018C0043F4003353625E4B5B6A03F400337B60D1
:10019C007B680C23BB600223FB6001233B610023C3
:1001AC007B610723BB6107F108031946554800F032
:1001BC00EBFA00220021262000F087FA262000F01E
:1001CC00A0FA514BDB68504A23F40053D3604E4BDA
:1001DC001B694D4A23F4405313610C23FB614A4BBA
:1001EC00DB6823F4164323F00C034749FA691343E5
:1001FC00CB60454B5B69444A23F44073536101F077
:10020C002FFF024613469B0013449A0013443F4AA7
:10021C00A2FB03231B0D1C0101F022FF0246134617
:10022C009B0013449A001344394AA2FB03231D0B71
:10023C0001F016FF024613469B0013449A00134428
:10024C00324AA2FB03231B0D642202FB03F3EB1ABD
:10025C001B0132332F4AA2FB03235B0903F0F0038B
:10026C001C4401F0FDFE024613469B0013449A0009
:10027C001344274AA2FB03231D0B01F0F1FE024697
:10028C0013469B0013449A001344204AA2FB0323F9
:10029C001B0D642202FB03F3EB1A1B0132331D4AC4
:1002AC00A2FB03235B0903F00F03174A234493605B
:1002BC00154B1B69144A23F490431361124B5B6971
:1002CC00114A23F02A0353610F4BDB680E4A43F4A7
:1002DC000053D360104B0022C3F808210E4B0022B0
:1002EC00C3F804210C4B0022C3F80021064BDB6839
:1002FC00054A43F02003D36000BF2037BD46B0BD94
:10030C0000380240000002400044004073B2E74550
:10031C00B5814E1B1F85EB512000002080B584B0A9
:10032C0000AF78600023FB600023FB6009E0FB68F2
:10033C007A6813441B78184600F06CF8FB6801339C
:10034C00FB60FB687A6813441B78002BEFD100BF6D
:10035C0000BF1037BD4680BD80B584B000AF78605B
:10036C000023FB720023FB6006E0FB685A1CFA605A
:10037C007A681344FA7A1A7000F062F80346FB723A
:10038C00FB7A0D2BF1D17A68FB68134400221A70AA
:10039C0000BF1037BD4680BD80B483B000AF184B92
:1003AC001B6803F02003002B24D0154B5B68FB71FA
:1003BC00144BD3F80831FF2B1CD8124BD3F8003157
:1003CC001049FA79CA540F4BD3F8083101330D4A4E
:1003DC00C2F808310B4BD3F800310133094AC2F88B
:1003EC000031084BD3F80031FF2B03D9054B002209
:1003FC00C3F8002100BF0C37BD4680BC704700BF5E
:10040C00004400402000002080B500AFFFF7C4FF7F
:10041C0000BF80BD80B483B000AF0346FB7100BF4A
:10042C00064B1B6803F08003002BF9D0034AFB79C1
:10043C00536000BF0C37BD4680BC70470044004081
:10044C0080B483B000AF0023FB7100BF134BD3F813
:10045C000831002BFAD0114BD3F804310F4AD35C7E
:10046C00FB710E4BD3F80831013B0C4AC2F8083132
:10047C000A4BD3F804310133084AC2F80431074B54
:10048C00D3F80431FF2B03D9044B0022C3F8042109
:10049C00FB7918460C37BD4680BC70472000002005
:1004AC0080B500AF032000F005F9002000F006F83D
:1004BC0001F0E6FE0023184680BD000080B582B036
:1004CC0000AF7860094B1B68094AA2FB03239B0908
:1004DC00184600F024F9002279684FF0FF3000F044
:1004EC00F4F8002318460837BD4680BD00000020F4
:1004FC00D34D621080B400AF044B1B680133034A28
:10050C00136000BFBD4680BC704700BF2C010020AB
:10051C0080B400AF024B1B681846BD4680BC7047C8
:10052C002C01002080B485B000AF78607B6803F0AC
:10053C000703FB600C4BDB68BB60BA684FF6FF032C
:10054C001340BB60FB681A02BB68134343F0BF63E4
:10055C0043F40033BB60044ABB68D36000BF14375C
:10056C00BD4680BC704700BF00ED00E080B400AF1A
:10057C00044BDB681B0A03F007031846BD4680BC1E
:10058C00704700BF00ED00E080B483B000AF0346BD
:10059C00FB71FB7903F01F02064997F907305B09E1
:1005AC00012000FA02F241F8232000BF0C37BD46AF
:1005BC0080BC704700E100E080B483B000AF03461C
:1005CC003960FB7197F90730002B0BDA3B68DAB214
:1005DC000C49FB7903F00F03043B1201D2B20B441C
:1005EC001A7609E03B68DAB2074997F9073012012D
:1005FC00D2B20B4483F8002300BF0C37BD4680BC3D
:10060C00704700BF00ED00E000E100E080B489B06D
:10061C0000AFF860B9607A60FB6803F00703FB6118
:10062C00FB69C3F10703042B28BF0423BB61FB69DF
:10063C000433062B02D9FB69033B00E000237B61EA
:10064C004FF0FF32BB6902FA03F3DA43BB681A407E
:10065C007B699A404FF0FF317B6901FA03F3D94370
:10066C007B680B40134318462437BD4680BC70474B
:10067C0080B582B000AF78607B68013BB3F1807FBE
:10068C0001D301230FE00A4A7B68013B53600F2121
:10069C004FF0FF30FFF790FF054B00229A60044BA0
:1006AC0007221A60002318460837BD4680BD00BFDC
:1006BC0010E000E080B582B000AF78607868FFF79A
:1006CC0031FF00BF0837BD4680BD80B586B000AF96
:1006DC000346B9607A60FB7300237B61FFF746FF2A
:1006EC0078617A68B9687869FFF790FF024697F9E4
:1006FC000F3011461846FFF75FFF00BF1837BD4695
:10070C0080BD80B582B000AF0346FB7197F907300E
:10071C001846FFF739FF00BF0837BD4680BD80B5CE
:10072C0082B000AF78607868FFF7A2FF03461846E6
:10073C000837BD4680BD000080B483B000AF786040
:10074C007B68042B06D1094B1B68084A43F0040351
:10075C00136005E0054B1B68044A23F00403136087
:10076C0000BF0C37BD4680BC704700BF10E000E0F6
:10077C0080B500AF00F002F800BF80BD80B400AFC0
:10078C0000BFBD4680BC704780B487B000AF7860B6
:10079C00396000237B610023FB6000233B6160E137
:1007AC003B681A6801217B6901FA03F31340FB6073
:1007BC00FB68002B00F052813B685B68022B03D076
:1007CC003B685B68122B23D17B69DA087B680832A3
:1007DC0053F822303B617B6903F007039B000F2227
:1007EC0002FA03F3DB433A6913403B613B681A6935
:1007FC007B6903F007039B0002FA03F33A69134386
:10080C003B617B69DA087B680832396943F822104E
:10081C007B681B683B617B695B00032202FA03F374
:10082C00DB433A6913403B613B685B6803F00302AE
:10083C007B695B0002FA03F33A6913433B617B6803
:10084C003A691A603B685B68012B0BD03B685B68AC
:10085C00022B07D03B685B68112B03D03B685B68AD
:10086C00122B30D17B689B683B617B695B00032258
:10087C0002FA03F3DB433A6913403B613B68DA68E5
:10088C007B695B0002FA03F33A6913433B617B68B3
:10089C003A699A607B685B683B6101227B6902FA6A
:1008AC0003F3DB433A6913403B613B685B681B090C
:1008BC0003F001027B6902FA03F33A6913433B61CB
:1008CC007B683A695A607B68DB683B617B695B00DB
:1008DC00032202FA03F3DB433A6913403B613B68A2
:1008EC009A687B695B0002FA03F33A6913433B6134
:1008FC007B683A69DA603B685B6803F08053002BD5
:10090C0000F0AC805E4B1B6A5D4A43F0010313623E
:10091C005B4B1B6A03F00103BB60BB68594A7B69E4
:10092C009B08023352F823303B617B6903F00303CD
:10093C009B000F2202FA03F3DB433A6913403B613D
:10094C007B68514A934225D07B68504A93421FD012
:10095C007B684F4A934219D07B684E4A934213D01E
:10096C007B684D4A93420DD07B684C4A934207D02A
:10097C007B684B4A934201D106230CE007230AE023
:10098C00052308E0042306E0032304E0022302E02D
:10099C00012300E000237A6902F0030292009340E5
:1009AC003A6913433B6137497B699B0802333A69C7
:1009BC0041F823203B4B1B683B61FB68DB433A69E6
:1009CC0013403B613B685B6803F48033002B03D01E
:1009DC003A69FB6813433B61324A3B691360314B04
:1009EC005B683B61FB68DB433A6913403B613B68E6
:1009FC005B6803F40033002B03D03A69FB681343A4
:100A0C003B61284A3B695360264B9B683B61FB6802
:100A1C00DB433A6913403B613B685B6803F480132A
:100A2C00002B03D03A69FB6813433B611D4A3B69B9
:100A3C0093601C4BDB683B61FB68DB433A691340FA
:100A4C003B613B685B6803F40013002B03D03A69ED
:100A5C00FB6813433B61134A3B69D3607B690133E9
:100A6C007B613B681A687B6922FA03F3002B7FF4E5
:100A7C0097AE00BF00BF1C37BD4680BC704700BF9F
:100A8C000038024000000140000002400004024017
:100A9C0000080240000C024000100240001402400A
:100AAC00001802400004014080B5E6B000AF07F525
:100ABC00CC73A3F5CA7318600023C7F8903107F5FF
:100ACC00CC73A3F5CA731B681B6803F00103002BDE
:100ADC0000F03281B34B9B6803F00C03082B0CD055
:100AEC00B04B9B6803F00C030C2B49D1AD4B9B68AE
:100AFC0003F48033B3F5803F42D14FF40033C7F891
:100B0C008C31D7F88C3193FAA3F3C7F88831D7F826
:100B1C008831B3FA83F3DBB25B09DBB243F0010338
:100B2C00DBB2012B02D19F4B1B6801E09D4B5B6B31
:100B3C004FF40032C7F88421D7F8842192FAA2F23C
:100B4C00C7F88021D7F88021B2FA82F252B242F073
:100B5C00200252B2D2B202F01F02012101FA02F2BB
:100B6C001340002B00F0E78007F5CC73A3F5CA7394
:100B7C001B685B68002B40F0DE80012300F0FFBF98
:100B8C0007F5CC73A3F5CA731B685B68012B06D100
:100B9C00844B1B68834A43F48033136035E007F5BC
:100BAC00CC73A3F5CA731B685B68002B0CD17D4B0F
:100BBC001B687C4A23F4803313607A4B1B68794A98
:100BCC0023F48023136020E007F5CC73A3F5CA73DC
:100BDC001B685B68052B0CD1724B1B68714A43F484
:100BEC00802313606F4B1B686E4A43F48033136091
:100BFC000BE06C4B1B686B4A23F480331360694B1E
:100C0C001B68684A23F48023136007F5CC73A3F5A3
:100C1C00CA731B685B68002B46D0FFF779FCC7F8DA
:100C2C0090010AE0FFF774FC0246D7F89031D31A12
:100C3C00642B02D9032300F0A2BF4FF40033C7F892
:100C4C007C31D7F87C3193FAA3F3C7F87831D7F815
:100C5C007831B3FA83F3DBB25B09DBB243F0010307
:100C6C00DBB2012B02D14F4B1B6801E04D4B5B6B90
:100C7C004FF40032C7F87421D7F8742192FAA2F21B
:100C8C00C7F87021D7F87021B2FA82F252B242F052
:100C9C00200252B2D2B202F01F02012101FA02F27A
:100CAC001340002BBED047E0FFF732FCC7F8900191
:100CBC000AE0FFF72DFC0246D7F89031D31A642BCB
:100CCC0002D9032300F05BBF4FF40033C7F86C313B
:100CDC00D7F86C3193FAA3F3C7F86831D7F86831B9
:100CEC00B3FA83F3DBB25B09DBB243F00103DBB293
:100CFC00012B02D12B4B1B6801E02A4B5B6B4FF491
:100D0C000032C7F86421D7F8642192FAA2F2C7F82E
:100D1C006021D7F86021B2FA82F252B242F020027E
:100D2C0052B2D2B202F01F02012101FA02F21340B8
:100D3C00002BBED100E000BF07F5CC73A3F5CA733E
:100D4C001B681B6803F00203002B00F04A81154B53
:100D5C009B6803F00C03042B0BD0124B9B6803F025
:100D6C000C030C2B65D10F4B9B6803F48033002BC9
:100D7C005FD10223C7F85C31D7F85C3193FAA3F347
:100D8C00C7F85831D7F85831B3FA83F3DBB25B09A3
:100D9C00DBB243F00103DBB2012B05D1014B1B6825
:100DAC0004E000BF00380240C54B5B6B0222C7F861
:100DBC005421D7F8542192FAA2F2C7F85021D7F84F
:100DCC005021B2FA82F252B242F0200252B2D2B2A6
:100DDC0002F01F02012101FA02F21340002B0AD08B
:100DEC0007F5CC73A3F5CA731B68DB68012B02D023
:100DFC00012300F0C4BEB24B5B6823F4F85207F534
:100E0C00CC73A3F5CA731B6819694FF4F853C7F870
:100E1C004C31D7F84C3193FAA3F3C7F84831D7F8D3
:100E2C004831B3FA83F301FA03F3A54913434B603A
:100E3C00D7E007F5CC73A3F5CA731B68DB68002BEE
:100E4C0076D00123C7F84431D7F8443193FAA3F391
:100E5C00C7F84031D7F84031B3FA83F303F1845328
:100E6C0003F58E139B001A4601231360FFF750FB0A
:100E7C00C7F890010AE0FFF74BFB0246D7F8903118
:100E8C00D31A022B02D9032300F079BE0223C7F830
:100E9C003C31D7F83C3193FAA3F3C7F83831D7F883
:100EAC003831B3FA83F3DBB25B09DBB243F00103F5
:100EBC00DBB2012B02D1824B1B6801E0804B5B6BD8
:100ECC000222C7F83421D7F8342192FAA2F2C7F8DB
:100EDC003021D7F83021B2FA82F252B242F020021D
:100EEC0052B2D2B202F01F02012101FA02F21340F7
:100EFC00002BC0D0724B5B6823F4F85207F5CC730F
:100F0C00A3F5CA731B6819694FF4F853C7F82C3151
:100F1C00D7F82C3193FAA3F3C7F82831D7F8283136
:100F2C00B3FA83F301FA03F3654913434B6058E0BA
:100F3C000123C7F82431D7F8243193FAA3F3C7F867
:100F4C002031D7F82031B3FA83F303F1845303F53E
:100F5C008E139B001A4600231360FFF7D9FAC7F8CB
:100F6C0090010AE0FFF7D4FA0246D7F89031D31A71
:100F7C00022B02D9032300F002BE0223C7F81C3156
:100F8C00D7F81C3193FAA3F3C7F81831D7F81831F6
:100F9C00B3FA83F3DBB25B09DBB243F00103DBB2E0
:100FAC00012B02D1464B1B6801E0454B5B6B0222C7
:100FBC00C7F81421D7F8142192FAA2F2C7F810211D
:100FCC00D7F81021B2FA82F252B242F0200252B299
:100FDC00D2B202F01F02012101FA02F21340002BDF
:100FEC00C0D107F5CC73A3F5CA731B681B6803F05B
:100FFC001003002B00F0F381314B9B6803F00C03C2
:10100C00002B40F0FA804FF40073C7F80C31D7F87E
:10101C000C3193FAA3F3C7F80831D7F80831B3FAB7
:10102C0083F3DBB25B09DBB243F00103DBB2012BD0
:10103C0002D1234B1B6801E0214B5B6B4FF4007218
:10104C00C7F80421D7F8042192FAA2F2C7F80021BC
:10105C00D7F80021B2FA82F252B242F0200252B218
:10106C00D2B202F01F02012101FA02F21340002B4E
:10107C000AD007F5CC73A3F5CA731B689B69002BC8
:10108C0002D1012300F07BBD07F5CC73A3F5CA7325
:10109C001B681A6A0A4B5B6803F460439A423CD99A
:1010AC0007F5CC73A3F5CA731B681B6A184600F0CE
:1010BC00F9FF0346002B05D0012300F060BD00BFF3
:1010CC0000380240B44B5B6823F4604207F5CC73E4
:1010DC00A3F5CA731B681B6AAF4913434B60AE4B35
:1010EC005B6823F07F4207F5CC73A3F5CA731B68CA
:1010FC00D9694FF07F43C7F8FC30D7F8FC3093FA2E
:10110C00A3F3C7F8F830D7F8F830B3FA83F301FA41
:10111C0003F3A14913434B6038E09F4B5B6823F406
:10112C00604207F5CC73A3F5CA731B681B6A9A4916
:10113C0013434B60984B5B6823F07F4207F5CC73ED
:10114C00A3F5CA731B68D9694FF07F43C7F8F43015
:10115C00D7F8F43093FAA3F3C7F8F030D7F8F0309F
:10116C00B3FA83F301FA03F38B4913434B6007F58E
:10117C00CC73A3F5CA731B681B6A184600F092FF68
:10118C000346002B02D0012300F0F9BC07F5CC7309
:10119C00A3F5CA731B681A6A4FF46043C7F8E430AE
:1011AC00D7F8E43093FAA3F3C7F8E030D7F8E0307F
:1011BC00B3FA83F322FA03F301334FF4004202FA39
:1011CC0003F3754A926802F0F001F022C7F8EC20A4
:1011DC00D7F8EC2092FAA2F2C7F8E820D7F8E8206A
:1011EC00B2FA82F221FA02F26C498A5CD3406C4A60
:1011FC0013600020FFF762F9F1E007F5CC73A3F55B
:10120C00CA731B689B69002B00F087804FF48073B6
:10121C00C7F8DC30D7F8DC3093FAA3F3C7F8D83032
:10122C00D7F8D830B3FA83F303F1845303F58E1354
:10123C009B001A4601231360FFF76AF9C7F8900167
:10124C000AE0FFF765F90246D7F89031D31A022B62
:10125C0002D9032300F093BC4FF40073C7F8D430C9
:10126C00D7F8D43093FAA3F3C7F8D030D7F8D030EE
:10127C00B3FA83F3DBB25B09DBB243F00103DBB2FD
:10128C00012B02D1444B1B6801E0434B5B6B4FF4C9
:10129C000072C7F8CC20D7F8CC2092FAA2F2C7F88B
:1012AC00C820D7F8C820B2FA82F252B242F020021B
:1012BC0052B2D2B202F01F02012101FA02F2134023
:1012CC00002BBED0344B5B6823F4604207F5CC7323
:1012DC00A3F5CA731B681B6A2F4913434B602E4B33
:1012EC005B6823F07F4207F5CC73A3F5CA731B68C8
:1012FC00D9694FF07F43C7F8C430D7F8C43093FA9C
:10130C00A3F3C7F8C030D7F8C030B3FA83F301FAAF
:10131C0003F3214913434B6061E04FF48073C7F82A
:10132C00BC30D7F8BC3093FAA3F3C7F8B830D7F871
:10133C00B830B3FA83F303F1845303F58E139B0097
:10134C001A4600231360FFF7E3F8C7F890010AE090
:10135C00FFF7DEF80246D7F89031D31A022B02D9E8
:10136C00032300F00CBC4FF40073C7F8B430D7F86B
:10137C00B43093FAA3F3C7F8B030D7F8B030B3FA5F
:10138C0083F3DBB25B09DBB243F00103DBB2012B6D
:10139C0008D1014B1B6807E000380240F824000814
:1013AC0000000020BA4B5B6B4FF40072C7F8AC2006
:1013BC00D7F8AC2092FAA2F2C7F8A820D7F8A82048
:1013CC00B2FA82F252B242F0200252B2D2B202F01F
:1013DC001F02012101FA02F21340002BB8D107F5CC
:1013EC00CC73A3F5CA731B681B6803F00803002BAE
:1013FC0000F0C98007F5CC73A3F5CA731B685B6951
:10140C00002B57D00123C7F8A430D7F8A43093FA97
:10141C00A3F3C7F8A030D7F8A030B3FA83F31A4679
:10142C009C4B13449B001A4601231360FFF770F882
:10143C00C7F8900109E0FFF76BF80246D7F8903136
:10144C00D31A022B01D9032399E30223C7F89C304A
:10145C00D7F89C3093FAA3F207F5CC73A3F58073FD
:10146C001A608B4B5A6B07F5CC73A3F58273022170
:10147C00196007F5CC73A3F582731B6893FAA3F17B
:10148C0007F5CC73A3F58473196007F5CC73A3F53A
:10149C0084731B68B3FA83F35BB243F040035BB213
:1014AC00DBB203F01F03012101FA03F31340002BFD
:1014BC00C1D068E007F5CC73A3F5867301221A60DE
:1014CC0007F5CC73A3F586731B6893FAA3F207F5A3
:1014DC00CC73A3F588731A6007F5CC73A3F58873E6
:1014EC001B68B3FA83F31A466A4B13449B001A46E3
:1014FC0000231360FFF70CF8C7F8900109E0FFF721
:10150C0007F80246D7F89031D31A022B01D90323DE
:10151C0035E307F5CC73A3F58A7302221A6007F53D
:10152C00CC73A3F58A731B6893FAA3F207F5CC73FB
:10153C00A3F58C731A60564B5A6B07F5CC73A3F555
:10154C008E730221196007F5CC73A3F58E731B689B
:10155C0093FAA3F107F5CC73A3F59073196007F513
:10156C00CC73A3F590731B68B3FA83F35BB243F0AF
:10157C0040035BB2DBB203F01F03012101FA03F35A
:10158C001340002BBBD107F5CC73A3F5CA731B68B2
:10159C001B6803F00403002B00F03981002387F84B
:1015AC0097313B4B5B6A03F08053002B16D1384BC1
:1015BC005B6A374A43F080535362354B5B6A03F0E6
:1015CC00805207F5CC73A3F5C6731A6007F5CC737C
:1015DC00A3F5C6731B68012387F897312E4B1B6844
:1015EC0003F48073002B1AD12B4B1B682A4A43F44B
:1015FC0080731360FEF78CFFC7F8900109E0FEF7CB
:10160C0087FF0246D7F89031D31A642B01D90323F4
:10161C00B5E2214B1B6803F48073002BEFD007F568
:10162C00CC73A3F5CA731B689B68012B06D1184BAE
:10163C005B6B174A43F4807353633BE007F5CC7341
:10164C00A3F5CA731B689B68002B0CD1104B5B6B0A
:10165C000F4A23F4807353630D4B5B6B0C4A23F4DA
:10166C008063536326E007F5CC73A3F5CA731B683C
:10167C009B68052B12D1064B5B6B054A43F48063C8
:10168C005363034B5B6B024A43F48073536311E067
:10169C0000380240A0C1911000700040934B5B6B6E
:1016AC00924A23F480735363904B5B6B8F4A23F401
:1016BC008063536307F5CC73A3F5CA731B689B68EF
:1016CC00002B4DD0FEF724FFC7F890010BE0FEF77E
:1016DC001FFF0246D7F89031D31A41F28832934259
:1016EC0001D903234BE207F5CC73A3F592734FF4A6
:1016FC0000721A6007F5CC73A3F592731B6893FA0A
:10170C00A3F207F5CC73A3F594731A60774B5A6B5D
:10171C0007F5CC73A3F596734FF40071196007F5B8
:10172C00CC73A3F596731B6893FAA3F107F5CC73EE
:10173C00A3F59873196007F5CC73A3F598731B6820
:10174C00B3FA83F35BB243F040035BB2DBB203F05A
:10175C001F03012101FA03F31340002BB7D04CE017
:10176C00FEF7D6FEC7F890010BE0FEF7D1FE02465D
:10177C00D7F89031D31A41F28832934201D903231E
:10178C00FDE107F5CC73A3F59A734FF400721A6060
:10179C0007F5CC73A3F59A731B6893FAA3F207F5BC
:1017AC00CC73A3F59C731A60504B5A6B07F5CC7332
:1017BC00A3F59E734FF40071196007F5CC73A3F574
:1017CC009E731B6893FAA3F107F5CC73A3F5A07372
:1017DC00196007F5CC73A3F5A0731B68B3FA83F3F8
:1017EC005BB243F040035BB2DBB203F01F03012199
:1017FC0001FA03F31340002BB7D197F89731012B63
:10180C0005D13A4B5B6A394A23F08053536207F592
:10181C00CC73A3F5CA731B685B6A002B00F0AE8116
:10182C00324B9B6803F00C030C2B00F0A58107F5E1
:10183C00CC73A3F5CA731B685B6A022B40F01C8146
:10184C0007F5CC73A3F5A2734FF080721A6007F5FD
:10185C00CC73A3F5A2731B6893FAA3F207F5CC73B0
:10186C00A3F5A4731A6007F5CC73A3F5A4731B68D6
:10187C00B3FA83F303F1845303F58E139B001A46DA
:10188C0000231360FEF744FEC7F8900109E0FEF751
:10189C003FFE0246D7F89031D31A022B01D903230D
:1018AC006DE107F5CC73A3F5A6734FF000721A60C7
:1018BC0007F5CC73A3F5A6731B6893FAA3F207F58F
:1018CC00CC73A3F5A8731A6007F5CC73A3F5A873B2
:1018DC001B68B3FA83F3DBB25B09DBB243F00103A1
:1018EC00DBB2012B04D1014B1B6803E00038024032
:1018FC00A54B5B6B07F5CC72A2F5AA724FF0007189
:10190C00116007F5CC72A2F5AA72126892FAA2F1D4
:10191C0007F5CC72A2F5AC72116007F5CC72A2F58A
:10192C00AC721268B2FA82F252B242F0200252B297
:10193C00D2B202F01F02012101FA02F21340002B75
:10194C00A5D1914B9B6823F47D0207F5CC73A3F5CD
:10195C00CA731B68996A07F5CC73A3F5CA731B6825
:10196C00DB6A194307F5CC73A3F5CA731B681B6BB1
:10197C000B43854913438B6007F5CC73A3F5AE730A
:10198C004FF080721A6007F5CC73A3F5AE731B6829
:10199C0093FAA3F207F5CC73A3F5B0731A6007F5AD
:1019AC00CC73A3F5B0731B68B3FA83F303F18453C0
:1019BC0003F58E139B001A4601231360FEF7A8FD56
:1019CC00C7F8900109E0FEF7A3FD0246D7F8903165
:1019DC00D31A022B01D90323D1E007F5CC73A3F55D
:1019EC00B2734FF000721A6007F5CC73A3F5B273A3
:1019FC001B6893FAA3F207F5CC73A3F5B4731A60C2
:101A0C0007F5CC73A3F5B4731B68B3FA83F3DBB29D
:101A1C005B09DBB243F00103DBB2012B02D15A4B61
:101A2C001B6801E0584B5B6B07F5CC72A2F5B672E4
:101A3C004FF00071116007F5CC72A2F5B672126806
:101A4C0092FAA2F107F5CC72A2F5B872116007F503
:101A5C00CC72A2F5B8721268B2FA82F252B242F0AB
:101A6C00200252B2D2B202F01F02012101FA02F29C
:101A7C001340002BA7D081E007F5CC73A3F5BA7304
:101A8C004FF080721A6007F5CC73A3F5BA731B681C
:101A9C0093FAA3F207F5CC73A3F5BC731A6007F5A0
:101AAC00CC73A3F5BC731B68B3FA83F303F18453B3
:101ABC0003F58E139B001A4600231360FEF728FDD6
:101ACC00C7F8900109E0FEF723FD0246D7F89031E4
:101ADC00D31A022B01D9032351E007F5CC73A3F5DC
:101AEC00BE734FF000721A6007F5CC73A3F5BE738A
:101AFC001B6893FAA3F207F5CC73A3F5C0731A60B5
:101B0C0007F5CC73A3F5C0731B68B3FA83F3DBB290
:101B1C005B09DBB243F00103DBB2012B02D11A4BA0
:101B2C001B6801E0184B5B6B07F5CC72A2F5C27217
:101B3C004FF00071116007F5CC72A2F5C2721268F9
:101B4C0092FAA2F107F5CC72A2F5C472116007F5F6
:101B5C00CC72A2F5C4721268B2FA82F252B242F09E
:101B6C00200252B2D2B202F01F02012101FA02F29B
:101B7C001340002BA7D101E0012300E000231846FD
:101B8C0007F5CC77BD4680BD0038024080B596B0D5
:101B9C0000AF7860396000237B65A04B1B6803F0B5
:101BAC0001033A689A4219D93B68012B05D19B4B2A
:101BBC001B689A4A43F004031360984B1B6823F08C
:101BCC00010296493B6813430B60944B1B6803F06E
:101BDC0001033A689A4201D00123A2E17B681B6899
:101BEC0003F00203002B08D08D4B9B6823F0F0020E
:101BFC007B689B688A4913438B607B681B6803F086
:101C0C000103002B00F031817B685B68022B30D123
:101C1C004FF400333B653B6D93FAA3F3FB64FB6C11
:101C2C00B3FA83F3DBB25B09DBB243F00103DBB243
:101C3C00012B02D17A4B1B6801E0794B5B6B4FF4A3
:101C4C000032BA64BA6C92FAA2F27A647A6CB2FA82
:101C5C0082F252B242F0200252B2D2B202F01F0211
:101C6C00012101FA02F21340002B40F0988001236D
:101C7C0057E17B685B68032B2FD14FF000733B64FB
:101C8C003B6C93FAA3F3FB63FB6BB3FA83F3DBB20A
:101C9C005B09DBB243F00103DBB2012B02D1604BD9
:101CAC001B6801E05E4B5B6B4FF00072BA63BA6B62
:101CBC0092FAA2F27A637A6BB2FA82F252B242F0E0
:101CCC00200252B2D2B202F01F02012101FA02F23A
:101CDC001340002B63D1012323E17B685B68012B4C
:101CEC002DD102233B633B6B93FAA3F3FB62FB6A9C
:101CFC00B3FA83F3DBB25B09DBB243F00103DBB273
:101D0C00012B02D1464B1B6801E0454B5B6B022259
:101D1C00BA62BA6A92FAA2F27A627A6AB2FA82F277
:101D2C0052B242F0200252B2D2B202F01F02012192
:101D3C0001FA02F21340002B31D10123F1E04FF4F0
:101D4C0000733B623B6A93FAA3F3FB61FB69B3FA42
:101D5C0083F3DBB25B09DBB243F00103DBB2012B93
:101D6C0002D12F4B1B6801E02D4B5B6B4FF40072C3
:101D7C00BA61BA6992FAA2F27A617A69B2FA82F21B
:101D8C0052B242F0200252B2D2B202F01F02012132
:101D9C0001FA02F21340002B01D10123C1E0204BC8
:101DAC009B6823F003027B685B681D4913438B60BF
:101DBC00FEF7AEFB78657B685B68022B12D10AE0FC
:101DCC00FEF7A6FB02467B6DD31A41F28832934292
:101DDC0001D90323A5E0124B9B6803F00C03082BDD
:101DEC00EED142E07B685B68032B12D10AE0FEF770
:101DFC008FFB02467B6DD31A41F28832934201D994
:101E0C0003238EE0064B9B6803F00C030C2BEED1E6
:101E1C002BE07B685B68012B21D10EE0003C02407B
:101E2C0000380240FEF774FB02467B6DD31A41F278
:101E3C008832934201D9032373E03C4B9B6803F037
:101E4C000C03042BEED110E0FEF762FB02467B6D17
:101E5C00D31A41F28832934201D9032361E0334B08
:101E6C009B6803F00C03002BEED1314B1B6803F085
:101E7C0001033A689A4219D23B68012B05D12C4BCD
:101E8C001B682B4A43F004031360294B1B6823F097
:101E9C00010227493B6813430B60254B1B6803F079
:101EAC0001033A689A4201D001233AE07B681B682F
:101EBC0003F00403002B08D01C4B9B6823F4E06256
:101ECC007B68DB68194913438B607B681B6803F0E4
:101EDC000803002B09D0154B9B6823F460527B68D8
:101EEC001B69DB00114913438B6000F027F8014696
:101EFC000E4B9B6803F0F002F0233B613B6993FAB5
:101F0C00A3F3FB60FB68B3FA83F322FA03F3094AE9
:101F1C00D35C21FA03F3084A13600020FEF7CEFAD3
:101F2C00002318465837BD4680BD00BF003802401C
:101F3C00003C0240F82400080000002080B48DB062
:101F4C0000AF00237B6200233B620023FB61002374
:101F5C00FB620023BB610023BB62384B9B687B6236
:101F6C007B6A03F00C030C2B0CD00C2B47D8042BE6
:101F7C0002D0082B03D042E0314BBB6258E0314B0E
:101F8C00BB6255E07B6A03F470124FF47013FB6074
:101F9C00FB6893FAA3F3BB60BB68B3FA83F322FA32
:101FAC0003F3294AD35C3B627B6A03F440024FF48F
:101FBC0040037B617B6993FAA3F33B613B69B3FA02
:101FCC0083F322FA03F30133FB611C4B9B6803F48C
:101FDC008033002B08D03B6A1A4A03FB02F2FB69E0
:101FEC00B2FBF3F3FB6207E03B6A154A03FB02F218
:101FFC00FB69B2FBF3F3FB62FB6ABB6218E00F4BAD
:10200C005B6803F460424FF460437B607B6893FA37
:10201C00A3F33B603B68B3FA83F322FA03F3BB618F
:10202C00BB6901334FF4004202FA03F3BB6200BFF9
:10203C00BB6A18463437BD4680BC70470038024036
:10204C000024F40000366E01EC24000880B400AFCC
:10205C00024B1B681846BD4680BC70470000002030
:10206C0080B582B000AFFFF7F1FF01460B4B9B68C8
:10207C0003F4E0624FF4E0637B607B6893FAA3F3B4
:10208C003B603B68B3FA83F322FA03F3044AD35C54
:10209C0021FA03F318460837BD4680BD00380240CC
:1020AC000825000880B487B000AF786000237B61FE
:1020BC0000233B61294B9B6803F0F003002B2CD1D0
:1020CC00264B5B6A03F08053002B05D0244B1B6816
:1020DC0003F4C0537B6116E0204B5B6A1F4A43F04C
:1020EC00805353621D4B5B6A03F08053FB60FB68AB
:1020FC001B4B1B6803F4C0537B61184B5B6A174A7C
:10210C0023F0805353627B69B3F5C05F05D17B68C4
:10211C00B3F5404F01D101233B613B69012B05D144
:10212C00104B1B680F4A43F0040313600D4B1B68E4
:10213C0023F001020B493B6913430B60094B1B68ED
:10214C0003F001033A699A4201D0012300E0002315
:10215C0018461C37BD4680BC704700BF0038024093
:10216C0000700040003C024080B483B000AF084BCC
:10217C00DB69074A43F00103D361054BDB6903F0CC
:10218C0001037B607B6800BF0C37BD4680BC704789
:10219C000038024080B586B000AFFEF781F900F040
:1021AC0017F8FFF7E1FFFDF7E3FF0748FEF7B6F876
:1021BC003B1D1846FEF7D0F80448FEF7AFF83B1D60
:1021CC001846FEF7ABF8F3E7AC240008D824000857
:1021DC0080B592B000AF244B1B6823F4C053224A45
:1021EC0043F40063136002237B6101233B621023E1
:1021FC007B620023BB6307F114031846FEF754FC03
:10220C000346002B03D04921184800F033F80F2364
:10221C003B6001237B600023BB600023FB60002339
:10222C003B613B4600211846FFF7B0FC0346002BF0
:10223C0003D057210D4800F01DF8FFF707FF0346A8
:10224C000B4AA2FB03239B091846FEF768FA0420ED
:10225C00FEF772FA002200214FF0FF30FEF735FA3C
:10226C0000BF4837BD4680BD00700040DC2400082C
:10227C00D34D621080B483B000AF78603960FEE754
:10228C0080B584B000AF2A4B5B6A294A43F0004307
:10229C005362274B5B6A03F00043FB60FB68244BE3
:1022AC001B6A234A43F001031362214B1B6A03F0A0
:1022BC000103BB60BB681E4B5B6A1D4A43F0805335
:1022CC0053621B4B5B6A03F080537B607B6803207B
:1022DC00FEF7F0F9002200216FF00B00FEF7F5F984
:1022EC00002200216FF00A00FEF7EFF90022002116
:1022FC006FF00900FEF7E9F9002200216FF00400ED
:10230C00FEF7E3F9002200216FF00300FEF7DDF980
:10231C00002200216FF00100FEF7D7F90022002106
:10232C004FF0FF30FEF7D1F900BF1037BD4680BD2E
:10233C000038024080B400AF00BFBD4680BC70477F
:10234C0080B400AFFEE780B400AFFEE780B400AF0E
:10235C00FEE780B400AFFEE780B400AF00BFBD461F
:10236C0080BC704780B400AF00BFBD4680BC7047D6
:10237C0080B400AF00BFBD4680BC704780B500AFD5
:10238C00FEF7B8F8FEF7F4F900BF80BD80B400AFDB
:10239C00154B1B68144A43F480731360124B9A68F4
:1023AC001149124B13408B600F4B1B680E4A23F0E4
:1023BC00885323F0011313600B4B1B680A4A23F458
:1023CC0080231360084B9B68074A23F47D039360BA
:1023DC00054B0022DA60064B4FF000629A6000BF9A
:1023EC00BD4680BC704700BF003802400CC0FF885F
:1023FC0000ED00E0002103E00B4B5B58435004312F
:10240C000A480B4B42189A42F6D30A4A02E00023C0
:10241C0042F8043B084B9A42F9D3FFF7B7FF00F0A0
:10242C000FF8FFF7B7FE70471825000800000020D2
:10243C00040000200400002030010020FEE7000012
:10244C0070B500260C4D0D4C641BA410A64209D18E
:10245C0000F01AF800260A4D0A4C641BA410A64280
:10246C0005D170BD55F8043B98470136EEE755F899
:10247C00043B98470136F2E71025000810250008A8
:10248C001025000814250008F8B500BFF8BC08BCDE
:10249C009E467047F8B500BFF8BC08BC9E46704716
:1024AC000D0A456E7472657A2064752074657874B3
:1024BC00652070756973207465726D696E657A201C
:1024CC0070617220454E545245453A000D0A000089
:1024DC002E2E2F5372632F6D61696E2E63000000D8
:1024EC00030406080C101820300000000000000047
:1024FC0000000000010203040607080900000000A8
:04250C0001020304C1
:04251000610100085D
:042514003D0100087D
:0425180068FF1F0039
:0400000508002401CA
:00000001FF
